:020000040800F2
:1000000098040020D9000008F90E0008450E0008E9
:1000100000000000000000000000000000000000E0
:10002000000000000000000000000000FD0E0008BD
:100030000000000000000000FB0E0008FF0E00089A
:10004000EB000008EB000008EB000008EB000008E4
:10005000EB000008EB000008EB000008EB000008D4
:1000600000000000EB000008EB000008EB000008B7
:10007000EB000008EB000008EB000008EB000008B4
:10008000EB000008EB000008EB0000080000000097
:10009000EB000008EB000008EB000008EB00000894
:1000A000EB000008EB000008EB000008EB00000884
:1000B000EB000008EB00000800000000000000005A
:1000C0000448854600F090F800480047C71400082F
:1000D000C046C046980400200448804704480047B2
:1000E000FEE7FEE7FEE7FEE7FEE7FEE78D0F00080E
:1000F000C100000830B50B46014600202022012433
:1001000009E00D46D5409D4205D31D469540491B4B
:100110002546954040191546521E002DF1DC30BD94
:10012000F0B51FB40646002082B005464024019178
:1001300000901BE0019922460F46304600F042F83D
:10014000049A059B801A994110D3104619462246FD
:1001500000F028F8361A8F4101972246012000212D
:10016000009F00F01FF838184D4100902046641E93
:100170000028DFDC019B00982946324607B0F0BD1D
:10018000D2B201E00270401C491EFBD2704700222F
:10019000F6E710B513460A4604461946FFF7F0FF86
:1001A000204610BD10B5202A04DB0146203A9140BC
:1001B000002010BD914020239C1A0346E3401943C0
:1001C000904010BD10B5202A04DB0846203AD040EC
:1001D000002110BD0B46D340D0402024A21A9140EC
:1001E0000843194610BD0000064C0125064E05E0E7
:1001F000E36807CC2B430C3C98471034B442F7D348
:10020000FFF762FFFC1400081C15000872B6FEE739
:10021000F8B5002303240125C2E032462E469E4055
:10022000B446324079D00E79B607B60F012E01D010
:10023000022E17D186682746B6465E00B740009664
:100240007646BE43B646CF68009EB74076463743F3
:10025000876046686746BE430F79FF06FF0F9F40E1
:10026000374347600E79F643B6070ED0C668274677
:10027000B4465E00B646B7406646BE43B4468F6895
:100280007646B74066463743C7600E79B607B60F65
:10029000022E14D1DE08B60036180096366A5F07C3
:1002A000B446FE0E0F27B646B7406646BE43B44678
:1002B0000F697646B74066463743009E3762066848
:1002C0002746B4465E00B646B7406646BE430F7941
:1002D000B446BF07BF0F7646B74066463743076050
:1002E0004E68B603B60F5AD0304F7E6B2E437E63F6
:1002F0009F082F4EBF00BE190096B6680F27B44660
:100300009E07360FB646B7406646BE4305273F07F1
:10031000B446B84202D100271AE040E0254FB84267
:1003200001D1012714E0244FB84201D102270FE088
:10033000224FB84201D103270AE0214FB84201D130
:10034000042705E01F4FB84201D1052700E006272A
:100350007646B74066463743009EB7601A4EB66889
:100360004F689643FF0200D51643174FBE60FE68E4
:100370004F689643BF0200D51643134FFE607E6858
:100380004F689643BF0300D516430F4F7E603E680B
:100390004F689643FF0300D516430B4A16605B1C5B
:1003A0000A681646DA4000D037E7F8BD0010024070
:1003B000000001400004005000080050000C0050F4
:1003C00000100050001C00500004014001488068EB
:1003D00070470000000000200248816802788918F8
:1003E000816070470000002010B5084800240168B3
:1003F000402211430160032000F00AF8002801D0D8
:10040000012401E000F026F8204610BD0020024043
:1004100070B504460D4D7D202978C000FFF76AFEB7
:1004200001460B480068FFF765FE00F08FFC0028CE
:1004300009D1042C07D200222146401E00F016F8F4
:1004400000206C6070BD012070BD00000000002025
:100450000C0000200448416B012211434163816B71
:1004600002041143816370470010024010B500F090
:10047000F9FF10BDF8B5044600780027594D8006F5
:1004800074D5584E403EB06BC00004D4B06BA90583
:100490000843B063012754480168C90511D40168B5
:1004A000821511430160FFF791FF009005E0FFF70F
:1004B0008DFF0099401A642837D84B480068C00562
:1004C000F5D532680321090560680A400140914270
:1004D00008D08103890F032904D13168890301D52C
:1004E0000120F8BD2A69032109040A4022D00840EE
:1004F00090421FD02078800631D528692A69884328
:100500000121C9040A432A612A698A432A612861B0
:10051000C0050FD5FFF75AFF009008E0FFF756FF20
:100520000099411A3148814201D90320F8BD286958
:100530008005F3D52078800611D561688803800F87
:10054000032805D132680005824301400A43326026
:100550002869032261681204114008432861002FB2
:1005600004D0B16B012000078143B1632078C0073C
:1005700005D0E868A168800880000843E86020781A
:10058000800705D5E8680C218843E1680843E860E6
:100590002078400706D5E86803218902884321694D
:1005A0000843E8602078000706D5E86803210903BE
:1005B000884361690843E8602088C00506D5E8687B
:1005C000032109048843A1690843E86020780006F4
:1005D00006D5E868032189048843E1690843E86097
:1005E0000020F8BD40100240007000408813000059
:1005F000F8B50E46050038D05E480068C007C00F49
:10060000B04214D25B4C2068400840003043206068
:10061000FFF7DCFE074605E0FFF7D8FEC11B564892
:1006200081427AD82068C007C00FB042F4D1287840
:10063000524C800705D5E068F0218843A96808433B
:10064000E0602878C00752D06868022806D00328E6
:1006500007D0216801280AD0890504E021688903B0
:1006600001E021688901002903DB0120F8BD490769
:10067000F9E7E168890889000143E160FFF7A6FE18
:100680000746686802280AD0032814D001281ED023
:1006900029E0FFF79BFEC11B374881423DD8E06847
:1006A0000007800F0228F4D121E0FFF78FFEC11B65
:1006B0003148814231D8E0680007800F0328F4D127
:1006C00015E0FFF783FEC11B2B48814225D8E06867
:1006D0000007800F0128F4D109E0FFF777FEC11B66
:1006E0002548814219D8E0680007800FF5D12148DC
:1006F0000168C907C90FB14217D901684908490003
:1007000031430160FFF762FE074608E005E0FFF7AE
:100710005DFEC11B1848814201D90320F8BD154870
:100720000068C007C00FB042F1D12878400706D555
:10073000E068072109028843E9680843E0602878F7
:10074000000707D5E0680721C90288432969C90065
:100750000843E06000F0A4F8E168094A0906090FBF
:10076000515CC8400749086007480068FFF750FE21
:10077000F8BD000000200240881300000010024075
:10078000DA1400080C00002004000020F8B52D4CFD
:1007900060682D4908400B210903401860602068FB
:1007A000A11508432060FFF711FE054604E0FFF79E
:1007B0000DFE401B022830D820688005F7D5E06880
:1007C00080088000E060214E04E0FFF7FFFD401B41
:1007D000B04222D8E0680007800FF6D11D491C48BE
:1007E00008601D480068FFF713FE002816D1206836
:1007F0001A4908402060206801210904084000903F
:100800002068890088432060FFF7E0FD054606E088
:10081000FFF7DCFD401B022801D90320F8BD20684A
:100820008001F5D40020E0602061FF20C030A0618D
:100830000448403001690122D205114301610020C2
:10084000F8BD000000100240FF00FF008813000008
:1008500068FF1F000C00002004000020D4FFF6FEFB
:10086000044805490068C968044A4905490F515CB4
:10087000C84070470C00002000100240F31400082C
:10088000044805490068C968044A8904490F515C55
:10089000C84070470C00002000100240F31400080C
:1008A00070B51A4AD3681A490C2018408D000428E4
:1008B0000CD04E00082810D00C2810D0506800042E
:1008C000410F0120C003491C884070BD1068C0065C
:1008D00001D5084670BD284670BD304670BD9802EF
:1008E0000C4C000F205C1B029C0FD368641CDB03C4
:1008F00001D5314603E01268D20600D4294600F043
:100900008CFD22460023FFF70BFC70BD0010024057
:1009100000093D00EA140008FEB505007ED0F74C42
:10092000E7680C20E66807400120000406402878AC
:10093000C00747D0082F05D00C2F0AD10120000492
:10094000864206D1206880033CD568680028E5D03F
:1009500038E0012069680004814203D12168014325
:10096000216011E0052301221B04920499422168B1
:1009700002D111432160F1E78143216021680140E8
:100980000091206890432060686800280DD0FFF730
:100990001DFD009005E0FFF719FD0099401A64283D
:1009A0007ED820688003F6D50CE0FFF70FFD00909D
:1009B00005E0FFF70BFD0099401A6428F0D8206885
:1009C0008003F6D4287880075DD5E868810604D5D1
:1009D000226820210A43226088430923042F0DD076
:1009E0000C2F01D1002E09D000283CD0216899435A
:1009F00001432160FFF7EAFC064628E02168490729
:100A000001D500288AD061681F22120291432A6909
:100A10001202114361602168994300E091E10143B2
:100A20002160FFF73DFFE16809060A0FB449895CC0
:100A3000C840B4490860B4480068FFF7E9FC0028E2
:100A400074D120E0FFF7C2FC801B0228A8D82068E0
:100A50004007F7D560681F21090288432969090208
:100A6000084360600FE02068400840002060FFF706
:100A7000ADFC064604E0FFF7A9FC801B02288FD8D6
:100A800020684007F7D42878C00661D5002F0DD024
:100A9000A86900284BD02068FF210131084300E0FD
:100AA000C6E02060FFF792FC06462DE02068800536
:100AB00002D5A8690028A5D06068072149038843AA
:100AC000296A084360606068297F0002000A0906FD
:100AD00008436060286A410B0120C003491C88401C
:100AE000E16809060A0F8649895CC84085490860A3
:100AF00085480068FFF78CFC002817D128E0FFF735
:100B000065FC801B0228A1D820688005F7D56068A5
:100B1000072149038843296A084360606068297F88
:100B20000002000A09060843606011E0E1E0216864
:100B3000FF20013081432160FFF748FC064604E0B6
:100B4000FFF744FC801B022872D820688005F7D488
:100B500028786E4E000724D568690028306910D0C7
:100B6000012108433061FFF731FC009005E0FFF7F9
:100B70002DFC0099401A02285AD830698007F6D512
:100B80000FE0400840003061FFF720FC009005E0D6
:100B9000FFF71CFC0099401A022849D830698007E9
:100BA000F6D42878400765D500200290A06BC000DD
:100BB00006D4A06B012109070843A063012002901D
:100BC00053480168C90511D40168821511430160B9
:100BD000FFF7FCFB009005E0FFF7F8FB0099401AD7
:100BE000642825D84A480068C005F5D5FF20AA68C2
:100BF0000130824203D131690143316111E00121A9
:100C00008902002A07D005231B029A4203D13269C8
:100C10000A433261EFE732698243326130698843C7
:100C20003061A86800280FD0FFF7D0FB009007E0E4
:100C30005EE0FFF7CBFB0099411A3648814257D856
:100C400030698005F5D50DE0FFF7C0FB009006E0A8
:100C5000FFF7BCFB0099411A2E48814248D8306901
:100C60008005F5D40298002804D0A06B0121090763
:100C70008843A063686A002865D00C2F4CD00126F9
:100C800036060228206805D0B0432060FFF79EFB9F
:100C900005462FE0B0432060FFF798FB074604E0CD
:100CA000FFF794FBC01B022822D820688001F7D4EC
:100CB000E96AA86AE2680843296BFD231B049A438A
:100CC00011430843E060206830432060FFF77EFB5B
:100CD000054604E0FFF77AFB401B022808D820688D
:100CE0008001F7D52FE0FFF771FB401B022801D9E7
:100CF0000320FEBD20688001F5D424E000100240EE
:100D0000DA1400080C00002004000020401002400B
:100D100000700040881300000128EAD0E06801213B
:100D20000904AA6A014091420BD10F218904EA6AA1
:100D30000140914205D1032189050840296B884271
:100D400001D00120FEBD0020FEBD0000094910B504
:100D5000401E884201D9012010BD074C606103216B
:100D6000081F00F07FFB0020A06107202061002009
:100D700010BD0000FFFFFF0000E000E010B5040020
:100D800003D0E06F002802D007E0012010BD002151
:100D900078200155204600F027F82420E0672068DD
:100DA0000168490849000160204600F0E7F9012880
:100DB000ECD0606A002802D0204600F0E8F82068F5
:100DC00041680922D20291434160206881682A2249
:100DD000914381602068016801221143016020462F
:100DE00000F03AF910BD000010B586B00446142199
:100DF0006846FFF7CCF91149206888421CD1104899
:100E0000416B0122920311434163C16A01221143E4
:100E1000C162C06A694610400590032040020090FC
:100E200002200190002002900320039004200490EF
:100E300005200007FFF7ECF906B010BD00380140AF
:100E400000100240FEE7000008B513480090FFF7CD
:100E50009DFC12490020086148618861012080F3EF
:100E6000108800200E4B0F4C411E8200D5182960BF
:100E700012191160401C0828F7D3002080F3108855
:100E8000009800994068096881F30888002181F37F
:100E900014888047FEE700000030000800E000E012
:100EA00080E100E080E200E008B50448C16A012268
:100EB0001143C162C06A1040009008BD001002409A
:100EC00010B50C480A490160E12149024160002146
:100ED0008160C16001618161C1610C220162426176
:100EE0004162FFF74BFF002801D0FFF78FF910BDDB
:100EF0000038014010000020FEE77047704710B531
:100F0000FFF76AFA10BD000030B59BB03421684687
:100F1000FFF73DF914210DA8FFF739F9202112A898
:100F2000FFF735F9184801680322D2029143C21431
:100F3000891801601020009005200024400301253D
:100F400008900695079409946846FFF7E5FC002889
:100F500001D072B6FEE70F200D900E940F941094FE
:100F6000002111940DA8FFF743FB002801D072B6B1
:100F7000FEE712A812951494FFF77CFA002801D01E
:100F800072B6FEE71BB030BD00700040704710B570
:100F9000818CC90707D001684A6801235B049A4322
:100FA000836A1A434A60818C890707D501684A68B9
:100FB00001231B049A43C36A1A434A60818C490780
:100FC00007D501684A6801239B049A43036B1A43BF
:100FD0004A60818C090707D501684A680123DB0351
:100FE0009A43436B1A434A60818CC90607D502684D
:100FF000916801231B039943836B19439160818C92
:10100000890607D501688A6801235B039A43C36B8D
:101010001A438A60818C490612D503685A680121F7
:101020000905046C8A4322435A60026C8A4207D144
:101030000268516803235B059943436C194351606F
:10104000818C090607D501684A680123DB04806C9E
:101050009A4302434A6010BDFEB50746002580371B
:1010600004467D60FFF7B2F90190206800682646CB
:1010700000076036002819DA274800900121002275
:1010800049052046019B00F083F900280ED0EFF3BC
:101090001080012181F3108821680A6880239A4317
:1010A0000A6080F310882020E06729E0206800684B
:1010B000400728D5184800900121002289052046C4
:1010C000019B00F065F900281DD0EFF3108001218D
:1010D00081F3108821680A68FF2321339A430A604C
:1010E00080F31088EFF31080012181F310882168CC
:1010F0008A68520852008A6080F310882020386085
:1011000035760320FEBD2020E067386025666566E1
:1011100035760020FEBD0000FFFFFF0110B5EFF3A4
:101120001081012282F3108802681368FF242134A1
:10113000A343136081F31088EFF31081012282F33F
:101140001088026893685B085B00936081F31088E5
:10115000016E01290BD1EFF31081012282F3108877
:10116000026813681024A343136081F310882022BF
:1011700080210A5000210166816610BDF8B5044641
:10118000016880682269E66910436269002532437C
:101190001043754B0A68754E324002430A6020685E
:1011A0004168032212039143E268114341602168C0
:1011B000A069994201D0226A10438A680B26360240
:1011C000B24302438A606A4922686A488A420CD163
:1011D000C0688007800F06D001283FD002283BD08E
:1011E000032827D124E0012725E063498A420AD158
:1011F000C0680C2108402DD004282FD008282BD0FF
:101200000C2817D114E05D498A4223D05C498A42F8
:1012100020D09A420ED1C16803208002014019D02B
:1012200001208002091A19D0091A15D0814201D172
:10123000082700E010274F495248403986009A425B
:1012400034D1002F0CD0022F0DD0042F10D0082F36
:101250007ED128E00027EEE70227ECE70427EAE743
:10126000FFF7FEFA06E00968C90605D4304603E038
:10127000FFF716FB002872D06268510051188142B6
:1012800066D81103814263D3010E06025008002381
:1012900030185941FEF744FF032109023A4A411A26
:1012A00091425AD954E00120C003E5E70122E369E5
:1012B000D20393422AD13B0000F0C7F80906090C7B
:1012C0004A114A4A4A264A00FFF7CAFA09E0FFF7DC
:1012D000D7FA06E00968C90605D4304603E0FFF7EF
:1012E000DFFA00283BD0616840004A088018FEF70A
:1012F00001FF0146254A1039914229D8511C01406D
:101300000007400F084328E01046ECE73B0000F0E0
:101310009CF80906090C1F111F1F1F211F00FFF752
:101320009FFA09E0FFF7ACFA06E00968C90605D4A0
:10133000304603E0FFF7B4FA002810D061684A088D
:101340001018FEF7D7FE02461049103A8A4203D918
:10135000012504E01046F1E780B22168C860002052
:10136000A066E0662846F8BD00480040F369FFEF3C
:10137000003801404010024000440040004C004052
:101380000050004000093D00FFFC0F00EFFF00008F
:10139000FFB5064681B080360546044660350A9F93
:1013A0002EE0781C2CD0FFF711F80499401AB842AF
:1013B00014D8002F12D020680168490720D5C169D0
:1013C000C94309070CD4082707622046FFF7A6FE89
:1013D000776000202876012005B0F0BD0320FBE7F0
:1013E000C069C04300050BD401202168C002086217
:1013F0002046FFF793FE2020706000202876EDE75E
:101400002068C1690298884305D000210398814271
:10141000C7D00020E0E70121F8E7F8B5040C8BB253
:10142000264682B25E430D0C1046370C58433604F4
:1014300080190021794116466E43370C3604801915
:10144000794126466E438919F8BD30B47446641E4E
:101450002578641CAB4200D21D46635D5B00E31837
:1014600030BC18478307FF22DB0E9A408907090E1C
:101470009940002808DB830809489B001B1818685E
:1014800090430843186070470007000F083883082E
:1014900004489B001B18D86990430843D8617047E3
:1014A00000E400E000ED00E002E008C8121F08C1FF
:1014B000002AFAD170477047002001E001C1121FD5
:1014C000002AFBD17047FEF78FFFFFF71DFDFFF7E6
:1014D000EBFCFFF7F5FCFFF7B7FC00000000000095
:1014E00000000102030406070809030406080C10A3
:1014F0001820300000000001020304001C15000841
:101500000000002010000000A81400082C1500089E
:101510001000002088040000B8140008010000003A
:0C1520000400000000000000000020009B
:04000005080000C12E
:00000001FF
